{
  "_format": "hh-sol-artifact-1",
  "contractName": "QuadraticVoting",
  "sourceName": "contracts/v2/QuadraticVoting.sol",
  "abi": [
    {
      "inputs": [
        {
          "internalType": "address",
          "name": "_token",
          "type": "address"
        },
        {
          "internalType": "address",
          "name": "_executor",
          "type": "address"
        }
      ],
      "stateMutability": "nonpayable",
      "type": "constructor"
    },
    {
      "inputs": [
        {
          "internalType": "address",
          "name": "owner",
          "type": "address"
        }
      ],
      "name": "OwnableInvalidOwner",
      "type": "error"
    },
    {
      "inputs": [
        {
          "internalType": "address",
          "name": "account",
          "type": "address"
        }
      ],
      "name": "OwnableUnauthorizedAccount",
      "type": "error"
    },
    {
      "inputs": [],
      "name": "ReentrancyGuardReentrantCall",
      "type": "error"
    },
    {
      "inputs": [
        {
          "internalType": "address",
          "name": "token",
          "type": "address"
        }
      ],
      "name": "SafeERC20FailedOperation",
      "type": "error"
    },
    {
      "anonymous": false,
      "inputs": [
        {
          "indexed": true,
          "internalType": "address",
          "name": "governanceReward",
          "type": "address"
        }
      ],
      "name": "GovernanceRewardUpdated",
      "type": "event"
    },
    {
      "anonymous": false,
      "inputs": [
        {
          "indexed": true,
          "internalType": "address",
          "name": "previousOwner",
          "type": "address"
        },
        {
          "indexed": true,
          "internalType": "address",
          "name": "newOwner",
          "type": "address"
        }
      ],
      "name": "OwnershipTransferred",
      "type": "event"
    },
    {
      "anonymous": false,
      "inputs": [
        {
          "indexed": true,
          "internalType": "uint256",
          "name": "proposalId",
          "type": "uint256"
        }
      ],
      "name": "ProposalExecuted",
      "type": "event"
    },
    {
      "anonymous": false,
      "inputs": [
        {
          "indexed": true,
          "internalType": "address",
          "name": "executor",
          "type": "address"
        }
      ],
      "name": "ProposalExecutorUpdated",
      "type": "event"
    },
    {
      "anonymous": false,
      "inputs": [
        {
          "indexed": true,
          "internalType": "uint256",
          "name": "proposalId",
          "type": "uint256"
        },
        {
          "indexed": true,
          "internalType": "address",
          "name": "voter",
          "type": "address"
        },
        {
          "indexed": false,
          "internalType": "uint256",
          "name": "amount",
          "type": "uint256"
        }
      ],
      "name": "RewardClaimed",
      "type": "event"
    },
    {
      "anonymous": false,
      "inputs": [
        {
          "indexed": true,
          "internalType": "address",
          "name": "treasury",
          "type": "address"
        }
      ],
      "name": "TreasuryUpdated",
      "type": "event"
    },
    {
      "anonymous": false,
      "inputs": [
        {
          "indexed": true,
          "internalType": "uint256",
          "name": "proposalId",
          "type": "uint256"
        },
        {
          "indexed": true,
          "internalType": "address",
          "name": "voter",
          "type": "address"
        },
        {
          "indexed": false,
          "internalType": "uint256",
          "name": "votes",
          "type": "uint256"
        },
        {
          "indexed": false,
          "internalType": "uint256",
          "name": "cost",
          "type": "uint256"
        }
      ],
      "name": "VoteCast",
      "type": "event"
    },
    {
      "inputs": [
        {
          "internalType": "uint256",
          "name": "proposalId",
          "type": "uint256"
        },
        {
          "internalType": "uint256",
          "name": "numVotes",
          "type": "uint256"
        },
        {
          "internalType": "uint256",
          "name": "deadline",
          "type": "uint256"
        }
      ],
      "name": "castVote",
      "outputs": [],
      "stateMutability": "nonpayable",
      "type": "function"
    },
    {
      "inputs": [
        {
          "internalType": "uint256",
          "name": "proposalId",
          "type": "uint256"
        }
      ],
      "name": "claimReward",
      "outputs": [],
      "stateMutability": "nonpayable",
      "type": "function"
    },
    {
      "inputs": [
        {
          "internalType": "uint256",
          "name": "",
          "type": "uint256"
        },
        {
          "internalType": "address",
          "name": "",
          "type": "address"
        }
      ],
      "name": "costs",
      "outputs": [
        {
          "internalType": "uint256",
          "name": "",
          "type": "uint256"
        }
      ],
      "stateMutability": "view",
      "type": "function"
    },
    {
      "inputs": [
        {
          "internalType": "uint256",
          "name": "proposalId",
          "type": "uint256"
        }
      ],
      "name": "execute",
      "outputs": [],
      "stateMutability": "nonpayable",
      "type": "function"
    },
    {
      "inputs": [
        {
          "internalType": "uint256",
          "name": "",
          "type": "uint256"
        }
      ],
      "name": "executed",
      "outputs": [
        {
          "internalType": "bool",
          "name": "",
          "type": "bool"
        }
      ],
      "stateMutability": "view",
      "type": "function"
    },
    {
      "inputs": [],
      "name": "governanceReward",
      "outputs": [
        {
          "internalType": "contract IGovernanceReward",
          "name": "",
          "type": "address"
        }
      ],
      "stateMutability": "view",
      "type": "function"
    },
    {
      "inputs": [],
      "name": "owner",
      "outputs": [
        {
          "internalType": "address",
          "name": "",
          "type": "address"
        }
      ],
      "stateMutability": "view",
      "type": "function"
    },
    {
      "inputs": [
        {
          "internalType": "uint256",
          "name": "",
          "type": "uint256"
        }
      ],
      "name": "proposalDeadline",
      "outputs": [
        {
          "internalType": "uint256",
          "name": "",
          "type": "uint256"
        }
      ],
      "stateMutability": "view",
      "type": "function"
    },
    {
      "inputs": [],
      "name": "proposalExecutor",
      "outputs": [
        {
          "internalType": "address",
          "name": "",
          "type": "address"
        }
      ],
      "stateMutability": "view",
      "type": "function"
    },
    {
      "inputs": [
        {
          "internalType": "uint256",
          "name": "proposalId",
          "type": "uint256"
        }
      ],
      "name": "proposalVoterCount",
      "outputs": [
        {
          "internalType": "uint256",
          "name": "",
          "type": "uint256"
        }
      ],
      "stateMutability": "view",
      "type": "function"
    },
    {
      "inputs": [],
      "name": "renounceOwnership",
      "outputs": [],
      "stateMutability": "nonpayable",
      "type": "function"
    },
    {
      "inputs": [
        {
          "internalType": "uint256",
          "name": "",
          "type": "uint256"
        },
        {
          "internalType": "address",
          "name": "",
          "type": "address"
        }
      ],
      "name": "rewardClaimed",
      "outputs": [
        {
          "internalType": "bool",
          "name": "",
          "type": "bool"
        }
      ],
      "stateMutability": "view",
      "type": "function"
    },
    {
      "inputs": [
        {
          "internalType": "contract IGovernanceReward",
          "name": "reward",
          "type": "address"
        }
      ],
      "name": "setGovernanceReward",
      "outputs": [],
      "stateMutability": "nonpayable",
      "type": "function"
    },
    {
      "inputs": [
        {
          "internalType": "address",
          "name": "executor",
          "type": "address"
        }
      ],
      "name": "setProposalExecutor",
      "outputs": [],
      "stateMutability": "nonpayable",
      "type": "function"
    },
    {
      "inputs": [
        {
          "internalType": "address",
          "name": "_treasury",
          "type": "address"
        }
      ],
      "name": "setTreasury",
      "outputs": [],
      "stateMutability": "nonpayable",
      "type": "function"
    },
    {
      "inputs": [],
      "name": "sweepTreasury",
      "outputs": [],
      "stateMutability": "nonpayable",
      "type": "function"
    },
    {
      "inputs": [],
      "name": "token",
      "outputs": [
        {
          "internalType": "contract IERC20",
          "name": "",
          "type": "address"
        }
      ],
      "stateMutability": "view",
      "type": "function"
    },
    {
      "inputs": [
        {
          "internalType": "uint256",
          "name": "",
          "type": "uint256"
        }
      ],
      "name": "totalCost",
      "outputs": [
        {
          "internalType": "uint256",
          "name": "",
          "type": "uint256"
        }
      ],
      "stateMutability": "view",
      "type": "function"
    },
    {
      "inputs": [
        {
          "internalType": "uint256",
          "name": "",
          "type": "uint256"
        }
      ],
      "name": "totalSqrtCost",
      "outputs": [
        {
          "internalType": "uint256",
          "name": "",
          "type": "uint256"
        }
      ],
      "stateMutability": "view",
      "type": "function"
    },
    {
      "inputs": [
        {
          "internalType": "address",
          "name": "newOwner",
          "type": "address"
        }
      ],
      "name": "transferOwnership",
      "outputs": [],
      "stateMutability": "nonpayable",
      "type": "function"
    },
    {
      "inputs": [],
      "name": "treasury",
      "outputs": [
        {
          "internalType": "address",
          "name": "",
          "type": "address"
        }
      ],
      "stateMutability": "view",
      "type": "function"
    },
    {
      "inputs": [
        {
          "internalType": "uint256",
          "name": "",
          "type": "uint256"
        },
        {
          "internalType": "address",
          "name": "",
          "type": "address"
        }
      ],
      "name": "votes",
      "outputs": [
        {
          "internalType": "uint256",
          "name": "",
          "type": "uint256"
        }
      ],
      "stateMutability": "view",
      "type": "function"
    }
  ],
  "bytecode": "0x60a03461013b57601f6111ac38819003918201601f19168301916001600160401b0383118484101761013f57808492604094855283398101031261013b57610052602061004b83610153565b9201610153565b903315610123575f549160018060a01b03908160018060a01b03199333858716175f5560405195823391167f8be0079c531659141344cd1fd0a4f28419497f9722a3daafe3b4186f6b6457e05f80a360018055168061011e575073a61a3b3a130a9c20768eebf97e21515a6046a1fa5b60805216809160035416176003557f8340f19ebb4333000d746370b9e4482ec210c4f2a2368aee4038056f47d96b1c5f80a2611044908161016882396080518181816102c20152818161068e015281816108ce0152610b7b0152f35b6100c2565b604051631e4fbdf760e01b81525f6004820152602490fd5b5f80fd5b634e487b7160e01b5f52604160045260245ffd5b51906001600160a01b038216820361013b5756fe6080604081815260049081361015610015575f80fd5b5f925f3560e01c9081632fdfae4314610cc45750806344094ba314610c9c5780634f59df8814610c7457806353fb6c5c14610c30578063582e439614610b395780635be5e3ec1461081357806361d027b3146107ec578063715018a61461079557806375d9c0c91461076e5780638da5cb5b14610747578063ae169a50146105ae578063af1c32a814610548578063c01f9e3714610521578063ca0e3bc5146104bc578063d23254b41461047d578063d3ecebd714610451578063e644c94d1461042a578063f0f44260146103bd578063f2fde38b14610330578063fade4ef9146102f1578063fc0c546a146102ae5763fe0d94c114610113575f80fd5b34610277576020908160031936011261027757823592610131610e00565b835f526005835261014860ff835f20541615610d4c565b6003546001600160a01b0393908416331480156102a2575b1561027b57845f5260058152825f2090600191600160ff19825416179055846002541691826101b7575b87877f712ae1383f79ac853f8d882153778e0260ef8f03b504e2866e0593e04d2b291f8280a26001805580f35b600b8252845f2091833b1561027757855163a88dd2a960e01b81528581018290528354602482018190525f948552828520919889956044870195939490915b83831061025d5750505050505091815f81819503925af1801561025357610220575b80808061018a565b909192935067ffffffffffffffff83116102405750525f905f8080610218565b604190634e487b7160e01b5f525260245ffd5b82513d5f823e3d90fd5b8554811687528b97509581019594840194918401916101f6565b5f80fd5b90606492519162461bcd60e51b8352818301526024820152636578656360e01b6044820152fd5b50835f54163314610160565b5034610277575f36600319011261027757517f00000000000000000000000000000000000000000000000000000000000000006001600160a01b03168152602090f35b503461027757806003193601126102775760209161030d610ce9565b90355f5260088352815f209060018060a01b03165f528252805f20549051908152f35b5090346102775760203660031901126102775761034b610cff565b90610354610dd5565b6001600160a01b039182169283156103a75750505f54826bffffffffffffffffffffffff60a01b8216175f55167f8be0079c531659141344cd1fd0a4f28419497f9722a3daafe3b4186f6b6457e05f80a3005b905f6024925191631e4fbdf760e01b8352820152fd5b8234610277576020366003190112610277576103d7610cff565b6103df610dd5565b6001600160a01b0316906103f4821515610d15565b80546001600160a01b031916821790557f7dae230f18360d76a040c81f050aa14eb9d6dc7901b20fc5d855e2a20fe814d15f80a2005b503461027757602036600319011261027757602091355f52600b8252805f20549051908152f35b503461027757602036600319011261027757602091355f526005825260ff815f20541690519015158152f35b5034610277578060031936011261027757602091610499610ce9565b90355f5260078352815f209060018060a01b03165f528252805f20549051908152f35b823461027757602036600319011261027757356001600160a01b03811690819003610277576104e9610dd5565b600280546001600160a01b031916821790557f5aa8b317890614612e115aded558843cef21cdc84530ffa468e1102e97da11df5f80a2005b503461027757602036600319011261027757602091355f5260068252805f20549051908152f35b3461027757602036600319011261027757610561610cff565b610569610dd5565b600380546001600160a01b0319166001600160a01b039290921691821790557f8340f19ebb4333000d746370b9e4482ec210c4f2a2368aee4038056f47d96b1c5f80a2005b50903461027757602080600319360112610277578135916105cd610e00565b825f526005825260ff845f2054161561071b57825f5260088252835f20335f528252835f20549081156106ec57835f52600d8352845f20335f52835260ff855f2054166106bf5750906106866106757f24b5efa61dd1cfc659205a97fb8ed868f3cb8c81922bab2b96423e5de1de2cb793855f52600d8452865f20335f528452865f20600160ff19825416179055855f526009845261066f875f205491610e89565b90610d83565b845f52600a8352855f205490610db7565b936106b285337f0000000000000000000000000000000000000000000000000000000000000000610e23565b519384523393a360018055005b845162461bcd60e51b8152908101839052600760248201526618db185a5b595960ca1b6044820152606490fd5b845162461bcd60e51b815290810183905260096024820152681b9bc81c995dd85c9960ba1b6044820152606490fd5b60649184519162461bcd60e51b83528201526008602482015267696e61637469766560c01b6044820152fd5b5034610277575f366003190112610277575f5490516001600160a01b039091168152602090f35b503461027757602036600319011261027757602091355f5260098252805f20549051908152f35b34610277575f366003190112610277576107ad610dd5565b5f80546001600160a01b0319811682556001600160a01b03167f8be0079c531659141344cd1fd0a4f28419497f9722a3daafe3b4186f6b6457e08280a3005b5034610277575f36600319011261027757905490516001600160a01b039091168152602090f35b509034610277576060366003190112610277578035602492833592604435610839610e00565b835f526020906005825261085360ff855f20541615610d4c565b8515610b1057845f5260068252835f205480155f14610add575042811115610ab157845f5260068252835f20555b61088b8580610d83565b9183516323b872dd60e01b8382015233888201523060448201528360648201526064815260a0810181811067ffffffffffffffff821117610a9f5785526108f2907f0000000000000000000000000000000000000000000000000000000000000000610fa9565b845f5260088252835f20335f528252835f205461095f61094f6109496109188785610daa565b93895f5260088752885f20335f52875284895f2055895f5260098752885f20610942898254610daa565b9055610e89565b92610e89565b875f52600a8552865f2054610daa565b908103908111610a8d57855f52600a8352845f205560078252835f20335f528252835f2061098e878254610daa565b9055845f52600c8252835f20335f52825260ff845f205416156109e1575b50825194855284015233927f0271f53eebbe20450d9578f28ec279231556c34545b30e2278d754ffd39cd63c9190a360018055005b845f52600c8252835f20335f528252835f20600160ff19825416179055845f52600b8252835f20805491600160401b831015610a7b5760018301808355831015610a6957505f9081528290200180546001600160a01b0319163317905593945084937f0271f53eebbe20450d9578f28ec279231556c34545b30e2278d754ffd39cd63c6109ac565b60328991634e487b7160e01b5f52525ffd5b60418991634e487b7160e01b5f52525ffd5b87601183634e487b7160e01b5f52525ffd5b88604184634e487b7160e01b5f52525ffd5b5085600891606494519362461bcd60e51b855284015282015267646561646c696e6560c01b6044820152fd5b90504211156108815785600791606494519362461bcd60e51b855284015282015266195e1c1a5c995960ca1b6044820152fd5b5085600591606494519362461bcd60e51b855284015282015264766f74657360d81b6044820152fd5b509034610277575f36600319011261027757602491610b56610dd5565b610b5e610e00565b81546001600160a01b0390811691610b77831515610d15565b60207f0000000000000000000000000000000000000000000000000000000000000000928251968780926370a0823160e01b8252308983015286165afa938415610c26575f94610bd4575b5050610bce9350610e23565b60018055005b909193506020913d602011610c1e575b601f8301601f191686019167ffffffffffffffff83118784101761024057505260209084018490031261027757610bce9251918480610bc2565b3d9250610be4565b50513d5f823e3d90fd5b5034610277578060031936011261027757602091610c4c610ce9565b90355f52600d8352815f209060018060a01b03165f52825260ff815f20541690519015158152f35b5034610277575f3660031901126102775760025490516001600160a01b039091168152602090f35b5034610277575f3660031901126102775760035490516001600160a01b039091168152602090f35b9190503461027757602036600319011261027757602092355f52600a83525f20548152f35b602435906001600160a01b038216820361027757565b600435906001600160a01b038216820361027757565b15610d1c57565b60405162461bcd60e51b8152602060048201526008602482015267747265617375727960c01b6044820152606490fd5b15610d5357565b60405162461bcd60e51b8152602060048201526008602482015267195e1958dd5d195960c21b6044820152606490fd5b81810292918115918404141715610d9657565b634e487b7160e01b5f52601160045260245ffd5b91908201809211610d9657565b8115610dc1570490565b634e487b7160e01b5f52601260045260245ffd5b5f546001600160a01b03163303610de857565b60405163118cdaa760e01b8152336004820152602490fd5b600260015414610e11576002600155565b604051633ee5aeb560e01b8152600490fd5b60405163a9059cbb60e01b60208201526001600160a01b039092166024830152604480830193909352918152608081019167ffffffffffffffff831182841017610e7557610e7392604052610fa9565b565b634e487b7160e01b5f52604160045260245ffd5b600180821115610fa557610f46908083600160801b811015610f93575b80600160401b6004921015610f86575b640100000000811015610f79575b62010000811015610f6c575b610100811015610f60575b6010811015610f54575b1015610f4d575b600302811c610efb8185610db7565b01811c610f088185610db7565b01811c610f158185610db7565b01811c610f228185610db7565b01811c610f2f8185610db7565b01811c610f3c8185610db7565b01901c8092610db7565b8111900390565b811b610eec565b811c9160021b91610ee5565b60081c91811b91610edb565b60101c9160081b91610ed0565b60201c9160101b91610ec4565b60401c9160201b91610eb6565b50600160401b9050608084901c610ea6565b5090565b905f602091828151910182855af115611003575f513d610ffa57506001600160a01b0381163b155b610fd85750565b604051635274afe760e01b81526001600160a01b039091166004820152602490fd5b60011415610fd1565b6040513d5f823e3d90fdfea26469706673582212206b4e049d3810cec5691277d101d287823c8da8b43365f4e0b6ea3b7635f3cc2d64736f6c63430008190033",
  "linkReferences": {},
  "deployedLinkReferences": {}
}